:020000040800F2
:100000007005002095020008F5020008F7020008BC
:10001000F9020008FB020008FD02000800000000D1
:10002000000000000000000000000000FF020008C7
:100030000103000800000000030300080503000896
:100040001703000817030008170300081703000828
:100050001703000817030008170300081703000818
:100060001703000817030008170300081703000808
:1000700017030008170300081703000817030008F8
:1000800017030008170300081703000817030008E8
:1000900017030008170300081703000817030008D8
:1000A00017030008170300081703000817030008C8
:1000B00017030008170300081703000817030008B8
:1000C00017030008170300081703000817030008A8
:1000D000170300080D0D0008170300081703000898
:1000E0001703000817030008170300081703000888
:1000F0001703000817030008170300081703000878
:100100001703000817030008170300081703000867
:100110001703000817030008170300081703000857
:100120001703000817030008170300081703000847
:1001300000000000000000000000000000000000BF
:1001400000000000000000000000000000000000AF
:10015000000000000000000000000000000000009F
:10016000000000000000000000000000000000008F
:10017000000000000000000000000000000000007F
:10018000000000000000000000000000000000006F
:10019000000000000000000000000000000000005F
:1001A000000000000000000000000000000000004F
:1001B000000000000000000000000000000000003F
:1001C000000000000000000000000000000000002F
:1001D000000000000000000000000000000000001F
:1001E000000000000000000000000000000000000F
:1001F000000000000000000000F002F800F03AF8F3
:100200000AA090E8000C82448344AAF10107DA4571
:1002100001D100F02FF8AFF2090EBAE80F0013F089
:10022000010F18BFFB1A43F00103184750110000DB
:1002300070110000103A24BF78C878C1FAD852076C
:1002400024BF30C830C144BF04680C607047000050
:100250000023002400250026103A28BF78C1FBD8CF
:10026000520728BF30C148BF0B6070471FB51FBD84
:1002700010B510BD00F098F81146FFF7F7FF00F039
:1002800091F800F0B6F803B4FFF7F2FF03BC00F0FA
:10029000D5F8000000F040F800F008F900F0E2F9AD
:1002A00000F04EF900F0D0F800F0C4FC00F034FA91
:1002B00040F2FF7000F032FC4FF064004FF0640138
:1002C000334A00F09FFC00F001FD4FF031018842FD
:1002D00008BF00F0F5F94FF4FA7008BF00F0C3F85A
:1002E00008BF00F0F6F94FF4FA7008BF00F0BBF851
:1002F000E9E7CFE7FEE7FEE7FEE7FEE7FEE7FEE71A
:10030000FEE7FEE72DE9FF4122480168A1F1010166
:100310000160BDE8FF81FEE72DE9FF411E4801684D
:1003200041F480310160016811F40031FBD00168B3
:1003300041F40031016019484FF032010160184862
:10034000016841F4806141F4802141F4002141F4CD
:10035000801141F4804141F4803101600E48016810
:1003600041F080710160016811F00071FBD00C4810
:10037000016841F0020101604FF0020201684FEA9A
:10038000910101F003019142F8D1BDE8FF81000025
:100390009C130008000000200010024000200240D2
:1003A0000410024000207047754600F029F8AE4660
:1003B00005006946534620F00700854618B020B571
:1003C00000F022F8BDE820404FF000064FF0000793
:1003D0004FF000084FF0000B21F00701AC46ACE8ED
:1003E000C009ACE8C009ACE8C009ACE8C0098D465A
:1003F00070470446AFF300802046FFF744FF00003B
:10040000004870471001002000B54FF0160085B07D
:10041000694601AA0A60ABBE0198002802BF0548E0
:10042000C01D20F007000399029A049B05B000BD8F
:10043000090000000000000070470000014918207A
:10044000ABBEFEE7260002002DE9FF4132480168FD
:1004500021F0040141F002010160304842F22831EC
:100460000160BDE8FF812DE9FF412D4908602D495C
:100470004FF000020A6028490A6842F001020A604F
:10048000274908680028FCD126494FF000020A607D
:1004900021490A6822F001020A60BDE8FF812DE9C6
:1004A000FF41401E00BFFCD1BDE8FF812DE9FF41A7
:1004B0001D4B19681D4A01EA02014FF0000000F1CE
:1004C00003004FEA002040EA0100186018484FF08E
:1004D00000610160BDE8FF812DE9FF4101F00F01DE
:1004E000144A4FEA01111154BDE8FF812DE9FF4183
:1004F0004FF03F0100EA01001F2886BF0E49203857
:100500000E494FF001020B6802FA00F243EA0203BF
:100510000B60BDE8FF81000010E000E014E000E0A7
:100520000000002018E000E00CED00E0FFF8FFFF05
:1005300008ED00E000E400E004E100E000E100E09C
:100540002DE9FF413F48016841F0100141F48071FD
:1005500001603D4801684FF00F0221EA02414FF06F
:10056000080241EA02410160384801684FF00F0279
:1005700021EA026121EA02714FF0080241EA0261B8
:1005800041EA02710160324801684FF00F0221EA2E
:1005900002114FF0080241EA02114FF00F0221EA66
:1005A00002314FF0080241EA023101602948016836
:1005B0004FF0010241EA02110160274801684FF43F
:1005C0002C6241EA02010160BDE8FF812DE9FE4194
:1005D0004FF001022148016811EA02130ED02048B1
:1005E000016811EA821309D011EAC21306D011EA98
:1005F000422303D011EAC22300D020D14FF6FF706E
:10060000FFF74DFF1548016811EA021308BF0820E3
:1006100015D01348016811EA821308BF0C200ED0D0
:1006200011EAC21308BF022009D011EA422308BF11
:10063000042004D011EAC22308BF0120FFD0BDE886
:10064000FE8100001810024000100140002001400F
:10065000042001400C1001400C2001400810014012
:10066000082001402DE9FF412748016841F01001B1
:10067000016026480168264A01EA02014FF00302A0
:1006800041EA020141EA021141EA022101602148E6
:10069000016841F007010160BDE8FF812DE9FF41DC
:1006A0001C48016821F001010160BDE8FF812DE9CE
:1006B000FF411848016841F001010160BDE8FF8178
:1006C0002DE9FF411348016821F004010160BDE8F4
:1006D000FF812DE9FF410F48016841F004010160ED
:1006E000BDE8FF812DE9FF410A48016821F00201C0
:1006F0000160BDE8FF812DE9FF410648016841F036
:1007000002010160BDE8FF811810024000100140A5
:1007100000F0FFFF0C1001402DE9FF41D7480168B0
:1007200041F480710160D648016841F4B471016000
:10073000D448016821F00F0141F003010160D24863
:100740000168D24A01EA0201D14A41EA020101608C
:10075000D04801684FF0FF2201EA02014FF0BB12BE
:1007600041EA02010160CC484FF0BB310160CB4847
:100770000168CB4A01EA02014FF0304241EA02012E
:100780000160C8480168C84A01EA02014FF43022FA
:1007900041EA02010160C5480168C54A01EA020157
:1007A0004FF00B0241EA020101604FF020404FF090
:1007B00018024FF0000145F2110341EA0301815094
:1007C0004FF01C024FF0000140F6017341EA0301B3
:1007D0008150B8484FF018024FF0000141F44071C9
:1007E00081504FF03200FFF73EFEB34FDFF8CC826E
:1007F0004FF000023A804FF00102A8F800204FF0BD
:100800003200FFF730FE4FF00000388000BF00BF1D
:1008100000BFB8F800004FF6FF71FF2802D38842EE
:1008200000D029E14FF0D3003880B8F80000B8F8C4
:100830000000B8F800004FEA0020B8F8001040EAC5
:10084000010000F038FA4FEA102000F034FA4FF0BF
:10085000130038804FF0B10038804FF0A000A8F8A6
:1008600000004FF00000A8F800004FF0B4003880FE
:100870004FF00000A8F800004FF02A0038804FF039
:100880000000A8F80000A8F800004FF00100A8F848
:1008900000004FF0DF00A8F800004FF02B00388078
:1008A0004FF00000A8F80000A8F800004FF0010089
:1008B000A8F800004FF03F00A8F800004FF0350006
:1008C00038804FF00000A8F800004FF03600388064
:1008D0004FF03000A8F800004FF0E00038804FF0F3
:1008E0000900A8F800004FF00A00A8F800004FF037
:1008F0000E00A8F800004FF00D00A8F800004FF01F
:100900000700A8F800004FF01800A8F800004FF00A
:100910000D00A8F80000A8F800004FF00E00A8F89D
:1009200000004FF00400A8F800004FF00500A8F800
:1009300000004FF00600A8F800004FF00E00A8F8E5
:1009400000004FF02500A8F800004FF02200A8F8A2
:1009500000004FF0E10038804FF01F00A8F80000C1
:100960004FF03F00A8F80000A8F800004FF00F007B
:10097000A8F800004FF01F00A8F800004FF00F008B
:10098000A8F800004FF04600A8F800004FF049001A
:10099000A8F800004FF03100A8F800004FF0050063
:1009A000A8F800004FF00900A8F800004FF003007D
:1009B000A8F800004FF01C00A8F800004FF01A0043
:1009C000A8F800004FF00000A8F800004FF03A002F
:1009D00038804FF05500A8F800004FF044003880F0
:1009E0004FF00000A8F800004FF00100A8F8000048
:1009F0004FF0110038804FF09600FFF734FD4FF0B4
:100A0000D00038804FF00700A8F80000A8F80000D8
:100A10004FF0D10038804FF00300A8F800004FF0ED
:100A20005200A8F800004FF01000A8F800004FF0A6
:100A3000D20038804FF00300A8F800004FF02400E7
:100A4000A8F800004FF0200038804FF0B000388048
:100A50004FF00000A8F800004FF0290038804FF058
:100A60000A00FFF700FD1648016841F0010101602E
:100A70004FF01F0000F052F8BDE8FF811410024053
:100A800018100240000C01400414014000F0FF0067
:100A9000BB0B00BB001401400418014000180140CA
:100AA000FFFFFF0F04200140FFFFF0FF0020014087
:100AB000F0FFFFFF040100A0FE07006C0008006CBF
:100AC0000C0C01402DE9FF41124F5FF810804FF0F0
:100AD0002A043C804FEA1025A8F80050A8F800002E
:100AE0004FEA1225A8F80050A8F800204FF02B0478
:100AF0003C804FEA1125A8F80050A8F800104FEAF2
:100B00001325A8F80050A8F800304FF02C043C80C2
:100B1000BDE8FF81FE07006C0008006C2DE9FF4175
:100B2000414F5FF8688001B44FF000004FF00001C2
:100B30004FF4F0724FF4A073FFF7C4FF4FF4F0705E
:100B40004FF4A07101FB00F101BC0139A8F80000CD
:100B5000FBD1BDE8FF812DE9FF41334F5FF8A48051
:100B60004FF02A033B804FEA1024A8F80040A8F871
:100B70000000A8F80040A8F800004FF02B033B80CD
:100B80004FEA1124A8F80040A8F80010A8F8004087
:100B9000A8F800104FF02C033B80A8F80020BDE817
:100BA000FF812DE9FF414FF02003A2EB03024FEA42
:100BB00002121F4B1A4489464FF00003D45C4FF0D9
:100BC00000084FF0800704B44FF0000214EA070653
:100BD00018BFFFF7C0FF01F1010108F101084FEA5A
:100BE0004404B8F1080FF1D1A1EB090ABAF1100FD2
:100BF00004BF4946013004BC03F10103102BDDD1D1
:100C0000BDE8FF812DE9FF411378002B09D004B422
:100C10001A46FFF7C6FF04BC02F1010200F108000A
:100C2000F2E7BDE8FF810000FE07006C0008006CE1
:100C30008C0D00082DE9FF414848016841F004018E
:100C400041F48041016046480168464A01EA0201D8
:100C50004FF40B6241EA020101604348016841F42C
:100C600080410160016821F4804101603F4840F209
:100C7000712101603E4842F20C0101603D484FF095
:100C8000000101603C4801603C484FF0000141F028
:100C9000010101603648016841F4907101604FF034
:100CA00025004FF00A01FFF717FC4FF02500FFF772
:100CB0001DFCBDE8FF812DE9FF4131490A6812F0B2
:100CC0008002FAD02F490860BDE8FF812DE9FE417E
:100CD0002A490A6812F0010214D12B49264A1368E6
:100CE000C85C03F1010303F0FF03136021490C68A2
:100CF00022490D68A34208BF45F0010525F0020511
:100D00000D6001E04FF00000BDE8FE812DE9FF41DC
:100D10004FF0250080F311881848016811F0020196
:100D200015D1184801681848124A1368C15403F1D4
:100D3000010303F0FF0313600F4801680F480268C6
:100D4000994208BF42F0020222F0010202604FF015
:100D5000000080F31188BDE8FF81000018100240F8
:100D6000040801400FF0FFFF0C100240083801405A
:100D70000C38014008000020040000200C00002076
:100D8000003801400438014010000020000000003D
:100D90000000000000000000000000000000000053
:100DA00000001FCC000C0000000000000000080044
:100DB000300060000800300060000000022003FCEA
:100DC0001E20022003FC1E200220000000000E183E
:100DD00011043FFF10840C78000000000F00108405
:100DE0000F3800C0077818840078000000780F845E
:100DF00010C411240E9800E4008400080800680064
:100E00007000000000000000000000000000000072
:100E1000000007E018182004400200000000400213
:100E20002004181807E00000000000000240024003
:100E300001800FF00180024002400000008000802D
:100E400000800FF800800080008000000001000D8D
:100E5000000E000000000000000000000000008004
:100E60000080008000800080008000800000000C76
:100E7000000C000000000000000000000000000660
:100E8000001800600180060018002000000007F034
:100E9000080810041004080807F000000000080407
:100EA00008041FFC000400040000000000000E0CF9
:100EB00010141024104411840E0C000000000C18B3
:100EC00010041104110412880C700000000000E0EE
:100ED0000320042408241FFC0024000000001F98A5
:100EE000108411041104108810700000000007F035
:100EF00008881104110418880070000000001C000C
:100F0000100010FC13001C001000000000000E3840
:100F100011441084108411440E38000000000700B2
:100F2000088C10441044088807F0000000000000FE
:100F30000000030C030C0000000000000000000093
:100F40000001010600000000000000000000008019
:100F500001400220041008081004000002200220B2
:100F600002200220022002200220000000001004C3
:100F700008080410022001400080000000000E005C
:100F80001200100C106C10800F00000003E00C1811
:100F900013E4142417C4082807D000000004003C00
:100FA00003C41C40074000E4001C000410041FFCA4
:100FB0001104110411040E880070000003E00C18E5
:100FC00010041004100410081C10000010041FFC72
:100FD000100410041004080807F0000010041FFC9F
:100FE0001104110417C410040818000010041FFC99
:100FF0001104110017C010000800000003E00C18D5
:101000001004100410441C780040000010041FFC61
:1010100010840080008010841FFC10040000100465
:1010200010041FFC10041004000000000003000165
:10103000100110011FFE10001000000010041FFC22
:10104000110403801464181C1004000010041FFC19
:101050001004000400040004000C000010041FFC35
:101060001F0000FC1F001FFC1004000010041FFCE8
:101070000C04030000E010181FFC100007F0080823
:10108000100410041004080807F0000010041FFCEE
:1010900010841080108010800F00000007F00818E6
:1010A00010241024101C080A07F2000010041FFC72
:1010B0001104110011C011300E0C000400000E1CB0
:1010C00011041084108410441C3800001800100013
:1010D00010041FFC100410001800000010001FF87E
:1010E00010040004000410041FF8100010001E007B
:1010F00011E0001C007013801C0010001FC0103C89
:1011000000E01F0000E0103C1FC000001004180C9D
:10111000163401C001C01634180C100410001C0055
:10112000130400FC13041C00100000000804101C31
:101130001064108413041C04101800000000000048
:1011400000007FFE4002400240020000000030002C
:101150000C0003800060001C00030000000040023F
:10116000400240027FFE000000000000000000007E
:10117000200040004000400020000000000100016D
:101180000001000100010001000100010000400019
:101190004000200000000000000000000000009857
:1011A000012401440144014400FC000410001FFC20
:1011B0000088010401040088007000000000007035
:1011C0000088010401040104008800000000007090
:1011D00000880104010411081FFC0004000000F84D
:1011E000014401440144014400C80000000001041E
:1011F00001040FFC1104110411001800000000D6B6
:1012000001290129012901C90106000010041FFC60
:10121000008401000100010400FC0004000001043E
:10122000190419FC00040004000000000000000381
:1012300000010101190119FE0000000010041FFC4B
:101240000024004001B4010C01040000000010045F
:1012500010041FFC0004000400000000010401FC55
:101260000104010001FC0104010000FC010401FC77
:10127000008401000100010400FC0004000000F8EB
:10128000010401040104010400F80000010101FF50
:101290000085010401040088007000000000007057
:1012A000008801040104010501FF0001010401049B
:1012B00001FC00840104010001800000000000CC5A
:1012C00001240124012401240198000000000100F0
:1012D000010007F80104010400000000010001F80A
:1012E000000400040004010801FC00040100018066
:1012F0000170000C001001600180010001F0010C80
:10130000003001C00030010C01F0010000000104B8
:10131000018C00740170018C010400000101018145
:101320000171000E001801600180010000000184BD
:10133000010C013401440184010C00000000000094
:101340000000000001003EFC4002400200000000DE
:1013500000000000FFFF000000000000000040024D
:1013600040023EFC010000000000000000006000A0
:10137000800080004000400020002000AC130008E6
:10138000000000201001000034020008BC14000816
:101390001001002060080000500200087777772EC7
:1013A00062726975702E636F6D00000000000000AE
:1013B000000000000000000000000000000000002D
:1013C000000000000000000000000000000000001D
:1013D000000000000000000000000000000000000D
:1013E00000000000000000000000000000000000FD
:1013F00000000000000000000000000000000000ED
:1014000000000000000000000000000000000000DC
:1014100000000000000000000000000000000000CC
:1014200000000000000000000000000000000000BC
:1014300000000000000000000000000000000000AC
:10144000000000000000000000000000000000009C
:10145000000000000000000000000000000000008C
:10146000000000000000000000000000000000007C
:10147000000000000000000000000000000000006C
:10148000000000000000000000000000000000005C
:10149000000000000000000000000000000000004C
:1014A000000000000000000000000000000000003C
:0C14B00000000000000000000000000030
:04000005080001F9F5
:00000001FF
